{"abi":[{"type":"function","name":"getAllowance","inputs":[{"name":"owner","type":"address","internalType":"address"},{"name":"token","type":"address","internalType":"address"}],"outputs":[{"name":"","type":"uint256","internalType":"uint256"}],"stateMutability":"view"},{"type":"function","name":"getUserBalance","inputs":[{"name":"user","type":"address","internalType":"address"},{"name":"token","type":"address","internalType":"address"}],"outputs":[{"name":"","type":"uint256","internalType":"uint256"}],"stateMutability":"view"},{"type":"function","name":"receiveApproval","inputs":[{"name":"_from","type":"address","internalType":"address"},{"name":"_value","type":"uint256","internalType":"uint256"},{"name":"_token","type":"address","internalType":"address"},{"name":"_extraData","type":"bytes","internalType":"bytes"}],"outputs":[],"stateMutability":"nonpayable"},{"type":"event","name":"NotificationReceived","inputs":[{"name":"from","type":"address","indexed":true,"internalType":"address"},{"name":"value","type":"uint256","indexed":false,"internalType":"uint256"},{"name":"token","type":"address","indexed":false,"internalType":"address"},{"name":"action","type":"string","indexed":false,"internalType":"string"}],"anonymous":false},{"type":"event","name":"TransferExecuted","inputs":[{"name":"from","type":"address","indexed":true,"internalType":"address"},{"name":"to","type":"address","indexed":true,"internalType":"address"},{"name":"amount","type":"uint256","indexed":false,"internalType":"uint256"},{"name":"token","type":"address","indexed":false,"internalType":"address"}],"anonymous":false}],"bytecode":{"object":"0x608060405234801561000f575f80fd5b50610a078061001d5f395ff3fe608060405234801561000f575f80fd5b506004361061003f575f3560e01c80630af4187d146100435780636805d6ad146100735780638f4ffcb1146100a3575b5f80fd5b61005d6004803603810190610058919061041e565b6100bf565b60405161006a9190610474565b60405180910390f35b61008d6004803603810190610088919061041e565b610142565b60405161009a9190610474565b60405180910390f35b6100bd60048036038101906100b89190610518565b6101c3565b005b5f8173ffffffffffffffffffffffffffffffffffffffff1663dd62ed3e84306040518363ffffffff1660e01b81526004016100fb9291906105ab565b602060405180830381865afa158015610116573d5f803e3d5ffd5b505050506040513d601f19601f8201168201806040525081019061013a91906105e6565b905092915050565b5f8173ffffffffffffffffffffffffffffffffffffffff166370a08231846040518263ffffffff1660e01b815260040161017c9190610611565b602060405180830381865afa158015610197573d5f803e3d5ffd5b505050506040513d601f19601f820116820180604052508101906101bb91906105e6565b905092915050565b5f8083838101906101d4919061079d565b915091508673ffffffffffffffffffffffffffffffffffffffff167f63ea8c478387f8593b665b92cf5588fdbc270a599e93f5196a74f40256b7d50f87878560405161022293929190610871565b60405180910390a26040518060400160405280600881526020017f5452414e5346455200000000000000000000000000000000000000000000000081525080519060200120828051906020012003610281576102808782888861028a565b5b50505050505050565b8073ffffffffffffffffffffffffffffffffffffffff166323b872dd8585856040518463ffffffff1660e01b81526004016102c7939291906108ad565b6020604051808303815f875af11580156102e3573d5f803e3d5ffd5b505050506040513d601f19601f820116820180604052508101906103079190610917565b610346576040517f08c379a000000000000000000000000000000000000000000000000000000000815260040161033d9061098c565b60405180910390fd5b8273ffffffffffffffffffffffffffffffffffffffff168473ffffffffffffffffffffffffffffffffffffffff167f60f70c3725ab6b7cd58d44086489fb888979fb5082724f771618fc27fa10158b84846040516103a59291906109aa565b60405180910390a350505050565b5f604051905090565b5f80fd5b5f80fd5b5f73ffffffffffffffffffffffffffffffffffffffff82169050919050565b5f6103ed826103c4565b9050919050565b6103fd816103e3565b8114610407575f80fd5b50565b5f81359050610418816103f4565b92915050565b5f8060408385031215610434576104336103bc565b5b5f6104418582860161040a565b92505060206104528582860161040a565b9150509250929050565b5f819050919050565b61046e8161045c565b82525050565b5f6020820190506104875f830184610465565b92915050565b6104968161045c565b81146104a0575f80fd5b50565b5f813590506104b18161048d565b92915050565b5f80fd5b5f80fd5b5f80fd5b5f8083601f8401126104d8576104d76104b7565b5b8235905067ffffffffffffffff8111156104f5576104f46104bb565b5b602083019150836001820283011115610511576105106104bf565b5b9250929050565b5f805f805f60808688031215610531576105306103bc565b5b5f61053e8882890161040a565b955050602061054f888289016104a3565b94505060406105608882890161040a565b935050606086013567ffffffffffffffff811115610581576105806103c0565b5b61058d888289016104c3565b92509250509295509295909350565b6105a5816103e3565b82525050565b5f6040820190506105be5f83018561059c565b6105cb602083018461059c565b9392505050565b5f815190506105e08161048d565b92915050565b5f602082840312156105fb576105fa6103bc565b5b5f610608848285016105d2565b91505092915050565b5f6020820190506106245f83018461059c565b92915050565b5f80fd5b5f601f19601f8301169050919050565b7f4e487b71000000000000000000000000000000000000000000000000000000005f52604160045260245ffd5b6106748261062e565b810181811067ffffffffffffffff821117156106935761069261063e565b5b80604052505050565b5f6106a56103b3565b90506106b1828261066b565b919050565b5f67ffffffffffffffff8211156106d0576106cf61063e565b5b6106d98261062e565b9050602081019050919050565b828183375f83830152505050565b5f610706610701846106b6565b61069c565b9050828152602081018484840111156107225761072161062a565b5b61072d8482856106e6565b509392505050565b5f82601f830112610749576107486104b7565b5b81356107598482602086016106f4565b91505092915050565b5f61076c826103c4565b9050919050565b61077c81610762565b8114610786575f80fd5b50565b5f8135905061079781610773565b92915050565b5f80604083850312156107b3576107b26103bc565b5b5f83013567ffffffffffffffff8111156107d0576107cf6103c0565b5b6107dc85828601610735565b92505060206107ed85828601610789565b9150509250929050565b5f81519050919050565b5f82825260208201905092915050565b5f5b8381101561082e578082015181840152602081019050610813565b5f8484015250505050565b5f610843826107f7565b61084d8185610801565b935061085d818560208601610811565b6108668161062e565b840191505092915050565b5f6060820190506108845f830186610465565b610891602083018561059c565b81810360408301526108a38184610839565b9050949350505050565b5f6060820190506108c05f83018661059c565b6108cd602083018561059c565b6108da6040830184610465565b949350505050565b5f8115159050919050565b6108f6816108e2565b8114610900575f80fd5b50565b5f81519050610911816108ed565b92915050565b5f6020828403121561092c5761092b6103bc565b5b5f61093984828501610903565b91505092915050565b7f5472616e73666572206661696c656400000000000000000000000000000000005f82015250565b5f610976600f83610801565b915061098182610942565b602082019050919050565b5f6020820190508181035f8301526109a38161096a565b9050919050565b5f6040820190506109bd5f830185610465565b6109ca602083018461059c565b939250505056fea2646970667358221220b122759c30875ef27de6aabf32910f6fbbdfb1898f3eb1e53da1ae5b6ccce7a564736f6c63430008140033","linkReferences":{}},"methodIdentifiers":{"getAllowance(address,address)":"0af4187d","getUserBalance(address,address)":"6805d6ad","receiveApproval(address,uint256,address,bytes)":"8f4ffcb1"},"id":0}