{"abi":[{"type":"constructor","inputs":[{"name":"_initialSupply","type":"uint256","internalType":"uint256"},{"name":"_tokenName","type":"string","internalType":"string"},{"name":"_tokenSymbol","type":"string","internalType":"string"}],"stateMutability":"nonpayable"},{"type":"function","name":"allowance","inputs":[{"name":"","type":"address","internalType":"address"},{"name":"","type":"address","internalType":"address"}],"outputs":[{"name":"","type":"uint256","internalType":"uint256"}],"stateMutability":"view"},{"type":"function","name":"approve","inputs":[{"name":"_spender","type":"address","internalType":"address"},{"name":"_value","type":"uint256","internalType":"uint256"}],"outputs":[{"name":"success","type":"bool","internalType":"bool"}],"stateMutability":"nonpayable"},{"type":"function","name":"approveAndCall","inputs":[{"name":"_spender","type":"address","internalType":"address"},{"name":"_value","type":"uint256","internalType":"uint256"},{"name":"_extraData","type":"bytes","internalType":"bytes"}],"outputs":[{"name":"success","type":"bool","internalType":"bool"}],"stateMutability":"nonpayable"},{"type":"function","name":"balanceOf","inputs":[{"name":"","type":"address","internalType":"address"}],"outputs":[{"name":"","type":"uint256","internalType":"uint256"}],"stateMutability":"view"},{"type":"function","name":"burn","inputs":[{"name":"_value","type":"uint256","internalType":"uint256"}],"outputs":[{"name":"success","type":"bool","internalType":"bool"}],"stateMutability":"nonpayable"},{"type":"function","name":"burnFrom","inputs":[{"name":"_from","type":"address","internalType":"address"},{"name":"_value","type":"uint256","internalType":"uint256"}],"outputs":[{"name":"success","type":"bool","internalType":"bool"}],"stateMutability":"nonpayable"},{"type":"function","name":"decimals","inputs":[],"outputs":[{"name":"","type":"uint8","internalType":"uint8"}],"stateMutability":"view"},{"type":"function","name":"name","inputs":[],"outputs":[{"name":"","type":"string","internalType":"string"}],"stateMutability":"view"},{"type":"function","name":"symbol","inputs":[],"outputs":[{"name":"","type":"string","internalType":"string"}],"stateMutability":"view"},{"type":"function","name":"totalSupply","inputs":[],"outputs":[{"name":"","type":"uint256","internalType":"uint256"}],"stateMutability":"view"},{"type":"function","name":"transfer","inputs":[{"name":"_to","type":"address","internalType":"address"},{"name":"_value","type":"uint256","internalType":"uint256"}],"outputs":[{"name":"success","type":"bool","internalType":"bool"}],"stateMutability":"nonpayable"},{"type":"function","name":"transferFrom","inputs":[{"name":"_from","type":"address","internalType":"address"},{"name":"_to","type":"address","internalType":"address"},{"name":"_value","type":"uint256","internalType":"uint256"}],"outputs":[{"name":"success","type":"bool","internalType":"bool"}],"stateMutability":"nonpayable"},{"type":"function","name":"transferWithCallback","inputs":[{"name":"_to","type":"address","internalType":"address"},{"name":"_value","type":"uint256","internalType":"uint256"},{"name":"_data","type":"bytes","internalType":"bytes"}],"outputs":[{"name":"","type":"bool","internalType":"bool"}],"stateMutability":"nonpayable"},{"type":"event","name":"Approval","inputs":[{"name":"owner","type":"address","indexed":true,"internalType":"address"},{"name":"spender","type":"address","indexed":true,"internalType":"address"},{"name":"value","type":"uint256","indexed":false,"internalType":"uint256"}],"anonymous":false},{"type":"event","name":"Burn","inputs":[{"name":"from","type":"address","indexed":true,"internalType":"address"},{"name":"value","type":"uint256","indexed":false,"internalType":"uint256"}],"anonymous":false},{"type":"event","name":"Transfer","inputs":[{"name":"from","type":"address","indexed":true,"internalType":"address"},{"name":"to","type":"address","indexed":true,"internalType":"address"},{"name":"value","type":"uint256","indexed":false,"internalType":"uint256"}],"anonymous":false}],"bytecode":{"object":"0x6080604052601260025f6101000a81548160ff021916908360ff1602179055503480156200002b575f80fd5b5060405162002438380380620024388339818101604052810190620000519190620002b1565b60025f9054906101000a900460ff1660ff16600a620000719190620004c5565b836200007e919062000515565b60038190555060035460045f3373ffffffffffffffffffffffffffffffffffffffff1673ffffffffffffffffffffffffffffffffffffffff1681526020019081526020015f2081905550815f9081620000d891906200078d565b508060019081620000ea91906200078d565b5050505062000871565b5f604051905090565b5f80fd5b5f80fd5b5f819050919050565b620001198162000105565b811462000124575f80fd5b50565b5f8151905062000137816200010e565b92915050565b5f80fd5b5f80fd5b5f601f19601f8301169050919050565b7f4e487b71000000000000000000000000000000000000000000000000000000005f52604160045260245ffd5b6200018d8262000145565b810181811067ffffffffffffffff82111715620001af57620001ae62000155565b5b80604052505050565b5f620001c3620000f4565b9050620001d1828262000182565b919050565b5f67ffffffffffffffff821115620001f357620001f262000155565b5b620001fe8262000145565b9050602081019050919050565b5f5b838110156200022a5780820151818401526020810190506200020d565b5f8484015250505050565b5f6200024b6200024584620001d6565b620001b8565b9050828152602081018484840111156200026a576200026962000141565b5b620002778482856200020b565b509392505050565b5f82601f8301126200029657620002956200013d565b5b8151620002a884826020860162000235565b91505092915050565b5f805f60608486031215620002cb57620002ca620000fd565b5b5f620002da8682870162000127565b935050602084015167ffffffffffffffff811115620002fe57620002fd62000101565b5b6200030c868287016200027f565b925050604084015167ffffffffffffffff81111562000330576200032f62000101565b5b6200033e868287016200027f565b9150509250925092565b7f4e487b71000000000000000000000000000000000000000000000000000000005f52601160045260245ffd5b5f8160011c9050919050565b5f808291508390505b6001851115620003d257808604811115620003aa57620003a962000348565b5b6001851615620003ba5780820291505b8081029050620003ca8562000375565b94506200038a565b94509492505050565b5f82620003ec5760019050620004be565b81620003fb575f9050620004be565b81600181146200041457600281146200041f5762000455565b6001915050620004be565b60ff84111562000434576200043362000348565b5b8360020a9150848211156200044e576200044d62000348565b5b50620004be565b5060208310610133831016604e8410600b84101617156200048f5782820a90508381111562000489576200048862000348565b5b620004be565b6200049e848484600162000381565b92509050818404811115620004b857620004b762000348565b5b81810290505b9392505050565b5f620004d18262000105565b9150620004de8362000105565b92506200050d7fffffffffffffffffffffffffffffffffffffffffffffffffffffffffffffffff8484620003db565b905092915050565b5f620005218262000105565b91506200052e8362000105565b92508282026200053e8162000105565b9150828204841483151762000558576200055762000348565b5b5092915050565b5f81519050919050565b7f4e487b71000000000000000000000000000000000000000000000000000000005f52602260045260245ffd5b5f6002820490506001821680620005ae57607f821691505b602082108103620005c457620005c362000569565b5b50919050565b5f819050815f5260205f209050919050565b5f6020601f8301049050919050565b5f82821b905092915050565b5f60088302620006287fffffffffffffffffffffffffffffffffffffffffffffffffffffffffffffffff82620005eb565b620006348683620005eb565b95508019841693508086168417925050509392505050565b5f819050919050565b5f620006756200066f620006698462000105565b6200064c565b62000105565b9050919050565b5f819050919050565b620006908362000655565b620006a86200069f826200067c565b848454620005f7565b825550505050565b5f90565b620006be620006b0565b620006cb81848462000685565b505050565b5b81811015620006f257620006e65f82620006b4565b600181019050620006d1565b5050565b601f82111562000741576200070b81620005ca565b6200071684620005dc565b8101602085101562000726578190505b6200073e6200073585620005dc565b830182620006d0565b50505b505050565b5f82821c905092915050565b5f620007635f198460080262000746565b1980831691505092915050565b5f6200077d838362000752565b9150826002028217905092915050565b62000798826200055f565b67ffffffffffffffff811115620007b457620007b362000155565b5b620007c0825462000596565b620007cd828285620006f6565b5f60209050601f83116001811462000803575f8415620007ee578287015190505b620007fa858262000770565b86555062000869565b601f1984166200081386620005ca565b5f5b828110156200083c5784890151825560018201915060208501945060208101905062000815565b868310156200085c578489015162000858601f89168262000752565b8355505b6001600288020188555050505b505050505050565b611bb9806200087f5f395ff3fe608060405234801561000f575f80fd5b50600436106100cd575f3560e01c806370a082311161008a578063a9059cbb11610064578063a9059cbb14610239578063cae9ca5114610269578063d313919514610299578063dd62ed3e146102c9576100cd565b806370a08231146101bb57806379cc6790146101eb57806395d89b411461021b576100cd565b806306fdde03146100d1578063095ea7b3146100ef57806318160ddd1461011f57806323b872dd1461013d578063313ce5671461016d57806342966c681461018b575b5f80fd5b6100d96102f9565b6040516100e691906111ea565b60405180910390f35b610109600480360381019061010491906112a8565b610384565b6040516101169190611300565b60405180910390f35b6101276104df565b6040516101349190611328565b60405180910390f35b61015760048036038101906101529190611341565b6104e5565b6040516101649190611300565b60405180910390f35b610175610645565b60405161018291906113ac565b60405180910390f35b6101a560048036038101906101a091906113c5565b610657565b6040516101b29190611300565b60405180910390f35b6101d560048036038101906101d091906113f0565b6107ff565b6040516101e29190611328565b60405180910390f35b610205600480360381019061020091906112a8565b610814565b6040516102129190611300565b60405180910390f35b610223610b06565b60405161023091906111ea565b60405180910390f35b610253600480360381019061024e91906112a8565b610b92565b6040516102609190611300565b60405180910390f35b610283600480360381019061027e919061147c565b610ba8565b6040516102909190611300565b60405180910390f35b6102b360048036038101906102ae919061147c565b610c71565b6040516102c09190611300565b60405180910390f35b6102e360048036038101906102de91906114ed565b610da4565b6040516102f09190611328565b60405180910390f35b5f805461030590611558565b80601f016020809104026020016040519081016040528092919081815260200182805461033190611558565b801561037c5780601f106103535761010080835404028352916020019161037c565b820191905f5260205f20905b81548152906001019060200180831161035f57829003601f168201915b505050505081565b5f8073ffffffffffffffffffffffffffffffffffffffff168373ffffffffffffffffffffffffffffffffffffffff16036103f3576040517f08c379a00000000000000000000000000000000000000000000000000000000081526004016103ea906115d2565b60405180910390fd5b8160055f3373ffffffffffffffffffffffffffffffffffffffff1673ffffffffffffffffffffffffffffffffffffffff1681526020019081526020015f205f8573ffffffffffffffffffffffffffffffffffffffff1673ffffffffffffffffffffffffffffffffffffffff1681526020019081526020015f20819055508273ffffffffffffffffffffffffffffffffffffffff163373ffffffffffffffffffffffffffffffffffffffff167f8c5be1e5ebec7d5bd14f71427d1e84f3dd0314c0f7b2291e5b200ac8c7c3b925846040516104cd9190611328565b60405180910390a36001905092915050565b60035481565b5f60055f8573ffffffffffffffffffffffffffffffffffffffff1673ffffffffffffffffffffffffffffffffffffffff1681526020019081526020015f205f3373ffffffffffffffffffffffffffffffffffffffff1673ffffffffffffffffffffffffffffffffffffffff1681526020019081526020015f20548211156105a1576040517f08c379a00000000000000000000000000000000000000000000000000000000081526004016105989061163a565b60405180910390fd5b8160055f8673ffffffffffffffffffffffffffffffffffffffff1673ffffffffffffffffffffffffffffffffffffffff1681526020019081526020015f205f3373ffffffffffffffffffffffffffffffffffffffff1673ffffffffffffffffffffffffffffffffffffffff1681526020019081526020015f205f8282546106289190611685565b9250508190555061063a848484610dc4565b600190509392505050565b60025f9054906101000a900460ff1681565b5f8160045f3373ffffffffffffffffffffffffffffffffffffffff1673ffffffffffffffffffffffffffffffffffffffff1681526020019081526020015f205410156106d8576040517f08c379a00000000000000000000000000000000000000000000000000000000081526004016106cf90611702565b60405180910390fd5b8160045f3373ffffffffffffffffffffffffffffffffffffffff1673ffffffffffffffffffffffffffffffffffffffff1681526020019081526020015f205f8282546107249190611685565b925050819055508160035f82825461073c9190611685565b925050819055503373ffffffffffffffffffffffffffffffffffffffff167fcc16f5dbb4873280815c1ee09dbd06736cffcc184412cf7a71a0fdb75d397ca5836040516107899190611328565b60405180910390a25f73ffffffffffffffffffffffffffffffffffffffff163373ffffffffffffffffffffffffffffffffffffffff167fddf252ad1be2c89b69c2b068fc378daa952ba7f163c4a11628f55a4df523b3ef846040516107ee9190611328565b60405180910390a360019050919050565b6004602052805f5260405f205f915090505481565b5f8160045f8573ffffffffffffffffffffffffffffffffffffffff1673ffffffffffffffffffffffffffffffffffffffff1681526020019081526020015f20541015610895576040517f08c379a000000000000000000000000000000000000000000000000000000000815260040161088c90611702565b60405180910390fd5b60055f8473ffffffffffffffffffffffffffffffffffffffff1673ffffffffffffffffffffffffffffffffffffffff1681526020019081526020015f205f3373ffffffffffffffffffffffffffffffffffffffff1673ffffffffffffffffffffffffffffffffffffffff1681526020019081526020015f2054821115610950576040517f08c379a00000000000000000000000000000000000000000000000000000000081526004016109479061163a565b60405180910390fd5b8160045f8573ffffffffffffffffffffffffffffffffffffffff1673ffffffffffffffffffffffffffffffffffffffff1681526020019081526020015f205f82825461099c9190611685565b925050819055508160055f8573ffffffffffffffffffffffffffffffffffffffff1673ffffffffffffffffffffffffffffffffffffffff1681526020019081526020015f205f3373ffffffffffffffffffffffffffffffffffffffff1673ffffffffffffffffffffffffffffffffffffffff1681526020019081526020015f205f828254610a2a9190611685565b925050819055508160035f828254610a429190611685565b925050819055508273ffffffffffffffffffffffffffffffffffffffff167fcc16f5dbb4873280815c1ee09dbd06736cffcc184412cf7a71a0fdb75d397ca583604051610a8f9190611328565b60405180910390a25f73ffffffffffffffffffffffffffffffffffffffff168373ffffffffffffffffffffffffffffffffffffffff167fddf252ad1be2c89b69c2b068fc378daa952ba7f163c4a11628f55a4df523b3ef84604051610af49190611328565b60405180910390a36001905092915050565b60018054610b1390611558565b80601f0160208091040260200160405190810160405280929190818152602001828054610b3f90611558565b8015610b8a5780601f10610b6157610100808354040283529160200191610b8a565b820191905f5260205f20905b815481529060010190602001808311610b6d57829003601f168201915b505050505081565b5f610b9e338484610dc4565b6001905092915050565b5f610bb38585610384565b610bf2576040517f08c379a0000000000000000000000000000000000000000000000000000000008152600401610be99061176a565b60405180910390fd5b5f8590508073ffffffffffffffffffffffffffffffffffffffff16638f4ffcb133873088886040518663ffffffff1660e01b8152600401610c379594939291906117e1565b5f604051808303815f87803b158015610c4e575f80fd5b505af1158015610c60573d5f803e3d5ffd5b505050506001915050949350505050565b5f610c7d338686610dc4565b610c868561114f565b15610d98578473ffffffffffffffffffffffffffffffffffffffff1663d0314263338686866040518563ffffffff1660e01b8152600401610cca949392919061182d565b5f604051808303815f87803b158015610ce1575f80fd5b505af1925050508015610cf2575060015b610d9757610cfe611877565b806308c379a003610d5a5750610d126118f4565b80610d1d5750610d5c565b806040517f08c379a0000000000000000000000000000000000000000000000000000000008152600401610d5191906111ea565b60405180910390fd5b505b6040517f08c379a0000000000000000000000000000000000000000000000000000000008152600401610d8e906119cd565b60405180910390fd5b5b60019050949350505050565b6005602052815f5260405f20602052805f5260405f205f91509150505481565b5f73ffffffffffffffffffffffffffffffffffffffff168373ffffffffffffffffffffffffffffffffffffffff1603610e32576040517f08c379a0000000000000000000000000000000000000000000000000000000008152600401610e2990611a35565b60405180910390fd5b5f73ffffffffffffffffffffffffffffffffffffffff168273ffffffffffffffffffffffffffffffffffffffff1603610ea0576040517f08c379a0000000000000000000000000000000000000000000000000000000008152600401610e9790611a9d565b60405180910390fd5b8060045f8573ffffffffffffffffffffffffffffffffffffffff1673ffffffffffffffffffffffffffffffffffffffff1681526020019081526020015f20541015610f20576040517f08c379a0000000000000000000000000000000000000000000000000000000008152600401610f1790611b05565b60405180910390fd5b5f60045f8473ffffffffffffffffffffffffffffffffffffffff1673ffffffffffffffffffffffffffffffffffffffff1681526020019081526020015f205460045f8673ffffffffffffffffffffffffffffffffffffffff1673ffffffffffffffffffffffffffffffffffffffff1681526020019081526020015f2054610fa79190611b23565b90508160045f8673ffffffffffffffffffffffffffffffffffffffff1673ffffffffffffffffffffffffffffffffffffffff1681526020019081526020015f205f828254610ff59190611685565b925050819055508160045f8573ffffffffffffffffffffffffffffffffffffffff1673ffffffffffffffffffffffffffffffffffffffff1681526020019081526020015f205f8282546110489190611b23565b925050819055508060045f8573ffffffffffffffffffffffffffffffffffffffff1673ffffffffffffffffffffffffffffffffffffffff1681526020019081526020015f205460045f8773ffffffffffffffffffffffffffffffffffffffff1673ffffffffffffffffffffffffffffffffffffffff1681526020019081526020015f20546110d69190611b23565b146110e4576110e3611b56565b5b8273ffffffffffffffffffffffffffffffffffffffff168473ffffffffffffffffffffffffffffffffffffffff167fddf252ad1be2c89b69c2b068fc378daa952ba7f163c4a11628f55a4df523b3ef846040516111419190611328565b60405180910390a350505050565b5f80823b90505f8111915050919050565b5f81519050919050565b5f82825260208201905092915050565b5f5b8381101561119757808201518184015260208101905061117c565b5f8484015250505050565b5f601f19601f8301169050919050565b5f6111bc82611160565b6111c6818561116a565b93506111d681856020860161117a565b6111df816111a2565b840191505092915050565b5f6020820190508181035f83015261120281846111b2565b905092915050565b5f604051905090565b5f80fd5b5f80fd5b5f73ffffffffffffffffffffffffffffffffffffffff82169050919050565b5f6112448261121b565b9050919050565b6112548161123a565b811461125e575f80fd5b50565b5f8135905061126f8161124b565b92915050565b5f819050919050565b61128781611275565b8114611291575f80fd5b50565b5f813590506112a28161127e565b92915050565b5f80604083850312156112be576112bd611213565b5b5f6112cb85828601611261565b92505060206112dc85828601611294565b9150509250929050565b5f8115159050919050565b6112fa816112e6565b82525050565b5f6020820190506113135f8301846112f1565b92915050565b61132281611275565b82525050565b5f60208201905061133b5f830184611319565b92915050565b5f805f6060848603121561135857611357611213565b5b5f61136586828701611261565b935050602061137686828701611261565b925050604061138786828701611294565b9150509250925092565b5f60ff82169050919050565b6113a681611391565b82525050565b5f6020820190506113bf5f83018461139d565b92915050565b5f602082840312156113da576113d9611213565b5b5f6113e784828501611294565b91505092915050565b5f6020828403121561140557611404611213565b5b5f61141284828501611261565b91505092915050565b5f80fd5b5f80fd5b5f80fd5b5f8083601f84011261143c5761143b61141b565b5b8235905067ffffffffffffffff8111156114595761145861141f565b5b60208301915083600182028301111561147557611474611423565b5b9250929050565b5f805f806060858703121561149457611493611213565b5b5f6114a187828801611261565b94505060206114b287828801611294565b935050604085013567ffffffffffffffff8111156114d3576114d2611217565b5b6114df87828801611427565b925092505092959194509250565b5f806040838503121561150357611502611213565b5b5f61151085828601611261565b925050602061152185828601611261565b9150509250929050565b7f4e487b71000000000000000000000000000000000000000000000000000000005f52602260045260245ffd5b5f600282049050600182168061156f57607f821691505b6020821081036115825761158161152b565b5b50919050565b7f417070726f766520746f207a65726f20616464726573730000000000000000005f82015250565b5f6115bc60178361116a565b91506115c782611588565b602082019050919050565b5f6020820190508181035f8301526115e9816115b0565b9050919050565b7f416c6c6f77616e636520657863656564656400000000000000000000000000005f82015250565b5f61162460128361116a565b915061162f826115f0565b602082019050919050565b5f6020820190508181035f83015261165181611618565b9050919050565b7f4e487b71000000000000000000000000000000000000000000000000000000005f52601160045260245ffd5b5f61168f82611275565b915061169a83611275565b92508282039050818111156116b2576116b1611658565b5b92915050565b7f496e73756666696369656e742062616c616e636520666f72206275726e0000005f82015250565b5f6116ec601d8361116a565b91506116f7826116b8565b602082019050919050565b5f6020820190508181035f830152611719816116e0565b9050919050565b7f417070726f76616c206661696c656400000000000000000000000000000000005f82015250565b5f611754600f8361116a565b915061175f82611720565b602082019050919050565b5f6020820190508181035f83015261178181611748565b9050919050565b6117918161123a565b82525050565b5f82825260208201905092915050565b828183375f83830152505050565b5f6117c08385611797565b93506117cd8385846117a7565b6117d6836111a2565b840190509392505050565b5f6080820190506117f45f830188611788565b6118016020830187611319565b61180e6040830186611788565b81810360608301526118218184866117b5565b90509695505050505050565b5f6060820190506118405f830187611788565b61184d6020830186611319565b81810360408301526118608184866117b5565b905095945050505050565b5f8160e01c9050919050565b5f60033d11156118935760045f803e6118905f5161186b565b90505b90565b7f4e487b71000000000000000000000000000000000000000000000000000000005f52604160045260245ffd5b6118cc826111a2565b810181811067ffffffffffffffff821117156118eb576118ea611896565b5b80604052505050565b5f60443d106119805761190561120a565b60043d036004823e80513d602482011167ffffffffffffffff8211171561192d575050611980565b808201805167ffffffffffffffff81111561194b5750505050611980565b80602083010160043d038501811115611968575050505050611980565b611977826020018501866118c3565b82955050505050505b90565b7f746f6b656e7352656365697665642063616c6c6261636b206661696c656400005f82015250565b5f6119b7601e8361116a565b91506119c282611983565b602082019050919050565b5f6020820190508181035f8301526119e4816119ab565b9050919050565b7f5472616e736665722066726f6d207a65726f20616464726573730000000000005f82015250565b5f611a1f601a8361116a565b9150611a2a826119eb565b602082019050919050565b5f6020820190508181035f830152611a4c81611a13565b9050919050565b7f5472616e7366657220746f207a65726f206164647265737300000000000000005f82015250565b5f611a8760188361116a565b9150611a9282611a53565b602082019050919050565b5f6020820190508181035f830152611ab481611a7b565b9050919050565b7f496e73756666696369656e742062616c616e63650000000000000000000000005f82015250565b5f611aef60148361116a565b9150611afa82611abb565b602082019050919050565b5f6020820190508181035f830152611b1c81611ae3565b9050919050565b5f611b2d82611275565b9150611b3883611275565b9250828201905080821115611b5057611b4f611658565b5b92915050565b7f4e487b71000000000000000000000000000000000000000000000000000000005f52600160045260245ffdfea2646970667358221220b3075135c342489c19aaf194f81e4bd898f5b7234b5fd092dd87f896064cd92464736f6c63430008140033","linkReferences":{}},"methodIdentifiers":{"allowance(address,address)":"dd62ed3e","approve(address,uint256)":"095ea7b3","approveAndCall(address,uint256,bytes)":"cae9ca51","balanceOf(address)":"70a08231","burn(uint256)":"42966c68","burnFrom(address,uint256)":"79cc6790","decimals()":"313ce567","name()":"06fdde03","symbol()":"95d89b41","totalSupply()":"18160ddd","transfer(address,uint256)":"a9059cbb","transferFrom(address,address,uint256)":"23b872dd","transferWithCallback(address,uint256,bytes)":"d3139195"},"id":50}