{"abi":[{"type":"constructor","inputs":[{"name":"_token","type":"address","internalType":"contract IERC20"}],"stateMutability":"nonpayable"},{"type":"function","name":"balanceOf","inputs":[{"name":"_user","type":"address","internalType":"address"}],"outputs":[{"name":"","type":"uint256","internalType":"uint256"}],"stateMutability":"view"},{"type":"function","name":"deposit","inputs":[{"name":"_amount","type":"uint256","internalType":"uint256"}],"outputs":[],"stateMutability":"nonpayable"},{"type":"function","name":"receiveApproval","inputs":[{"name":"_from","type":"address","internalType":"address"},{"name":"_value","type":"uint256","internalType":"uint256"},{"name":"_token","type":"address","internalType":"address"},{"name":"","type":"bytes","internalType":"bytes"}],"outputs":[],"stateMutability":"nonpayable"},{"type":"function","name":"token","inputs":[],"outputs":[{"name":"","type":"address","internalType":"contract IERC20"}],"stateMutability":"view"},{"type":"function","name":"tokensReceived","inputs":[{"name":"from","type":"address","internalType":"address"},{"name":"amount","type":"uint256","internalType":"uint256"},{"name":"","type":"bytes","internalType":"bytes"}],"outputs":[],"stateMutability":"nonpayable"},{"type":"function","name":"withdraw","inputs":[{"name":"_amount","type":"uint256","internalType":"uint256"}],"outputs":[],"stateMutability":"nonpayable"},{"type":"event","name":"Deposit","inputs":[{"name":"user","type":"address","indexed":true,"internalType":"address"},{"name":"amount","type":"uint256","indexed":false,"internalType":"uint256"}],"anonymous":false},{"type":"event","name":"Withdraw","inputs":[{"name":"user","type":"address","indexed":true,"internalType":"address"},{"name":"amount","type":"uint256","indexed":false,"internalType":"uint256"}],"anonymous":false}],"bytecode":{"object":"0x608060405234801562000010575f80fd5b506040516200127d3803806200127d8339818101604052810190620000369190620000f4565b805f806101000a81548173ffffffffffffffffffffffffffffffffffffffff021916908373ffffffffffffffffffffffffffffffffffffffff1602179055505062000124565b5f80fd5b5f73ffffffffffffffffffffffffffffffffffffffff82169050919050565b5f620000ab8262000080565b9050919050565b5f620000be826200009f565b9050919050565b620000d081620000b2565b8114620000db575f80fd5b50565b5f81519050620000ee81620000c5565b92915050565b5f602082840312156200010c576200010b6200007c565b5b5f6200011b84828501620000de565b91505092915050565b61114b80620001325f395ff3fe608060405234801561000f575f80fd5b5060043610610060575f3560e01c80632e1a7d4d1461006457806370a08231146100805780638f4ffcb1146100b0578063b6b55f25146100cc578063d0314263146100e8578063fc0c546a14610104575b5f80fd5b61007e60048036038101906100799190610a2d565b610122565b005b61009a60048036038101906100959190610ab2565b610367565b6040516100a79190610aec565b60405180910390f35b6100ca60048036038101906100c59190610b66565b6103ad565b005b6100e660048036038101906100e19190610a2d565b610692565b005b61010260048036038101906100fd9190610bea565b610859565b005b61010c6109cf565b6040516101199190610cb6565b60405180910390f35b5f8111610164576040517f08c379a000000000000000000000000000000000000000000000000000000000815260040161015b90610d29565b60405180910390fd5b8060015f3373ffffffffffffffffffffffffffffffffffffffff1673ffffffffffffffffffffffffffffffffffffffff1681526020019081526020015f205410156101e4576040517f08c379a00000000000000000000000000000000000000000000000000000000081526004016101db90610d91565b60405180910390fd5b8060015f3373ffffffffffffffffffffffffffffffffffffffff1673ffffffffffffffffffffffffffffffffffffffff1681526020019081526020015f205f8282546102309190610ddc565b925050819055505f805f9054906101000a900473ffffffffffffffffffffffffffffffffffffffff1673ffffffffffffffffffffffffffffffffffffffff1663a9059cbb33846040518363ffffffff1660e01b8152600401610293929190610e1e565b6020604051808303815f875af11580156102af573d5f803e3d5ffd5b505050506040513d601f19601f820116820180604052508101906102d39190610e7a565b905080610315576040517f08c379a000000000000000000000000000000000000000000000000000000000815260040161030c90610eef565b60405180910390fd5b3373ffffffffffffffffffffffffffffffffffffffff167f884edad9ce6fa2440d8a54cc123490eb96d2768479d49ff9c7366125a94243648360405161035b9190610aec565b60405180910390a25050565b5f60015f8373ffffffffffffffffffffffffffffffffffffffff1673ffffffffffffffffffffffffffffffffffffffff1681526020019081526020015f20549050919050565b5f8054906101000a900473ffffffffffffffffffffffffffffffffffffffff1673ffffffffffffffffffffffffffffffffffffffff168373ffffffffffffffffffffffffffffffffffffffff161461043a576040517f08c379a000000000000000000000000000000000000000000000000000000000815260040161043190610f57565b60405180910390fd5b5f8054906101000a900473ffffffffffffffffffffffffffffffffffffffff1673ffffffffffffffffffffffffffffffffffffffff163373ffffffffffffffffffffffffffffffffffffffff16146104c7576040517f08c379a00000000000000000000000000000000000000000000000000000000081526004016104be90610fbf565b60405180910390fd5b5f8411610509576040517f08c379a000000000000000000000000000000000000000000000000000000000815260040161050090610d29565b60405180910390fd5b5f805f9054906101000a900473ffffffffffffffffffffffffffffffffffffffff1673ffffffffffffffffffffffffffffffffffffffff166323b872dd8730886040518463ffffffff1660e01b815260040161056793929190610fdd565b6020604051808303815f875af1158015610583573d5f803e3d5ffd5b505050506040513d601f19601f820116820180604052508101906105a79190610e7a565b9050806105e9576040517f08c379a00000000000000000000000000000000000000000000000000000000081526004016105e09061105c565b60405180910390fd5b8460015f8873ffffffffffffffffffffffffffffffffffffffff1673ffffffffffffffffffffffffffffffffffffffff1681526020019081526020015f205f828254610635919061107a565b925050819055508573ffffffffffffffffffffffffffffffffffffffff167fe1fffcc4923d04b559f4d29a8bfc6cda04eb5b0d3c460751c2402c5c5cc9109c866040516106829190610aec565b60405180910390a2505050505050565b5f81116106d4576040517f08c379a00000000000000000000000000000000000000000000000000000000081526004016106cb90610d29565b60405180910390fd5b5f805f9054906101000a900473ffffffffffffffffffffffffffffffffffffffff1673ffffffffffffffffffffffffffffffffffffffff166323b872dd3330856040518463ffffffff1660e01b815260040161073293929190610fdd565b6020604051808303815f875af115801561074e573d5f803e3d5ffd5b505050506040513d601f19601f820116820180604052508101906107729190610e7a565b9050806107b4576040517f08c379a00000000000000000000000000000000000000000000000000000000081526004016107ab906110f7565b60405180910390fd5b8160015f3373ffffffffffffffffffffffffffffffffffffffff1673ffffffffffffffffffffffffffffffffffffffff1681526020019081526020015f205f828254610800919061107a565b925050819055503373ffffffffffffffffffffffffffffffffffffffff167fe1fffcc4923d04b559f4d29a8bfc6cda04eb5b0d3c460751c2402c5c5cc9109c8360405161084d9190610aec565b60405180910390a25050565b5f8054906101000a900473ffffffffffffffffffffffffffffffffffffffff1673ffffffffffffffffffffffffffffffffffffffff163373ffffffffffffffffffffffffffffffffffffffff16146108e6576040517f08c379a00000000000000000000000000000000000000000000000000000000081526004016108dd90610fbf565b60405180910390fd5b5f8311610928576040517f08c379a000000000000000000000000000000000000000000000000000000000815260040161091f90610d29565b60405180910390fd5b8260015f8673ffffffffffffffffffffffffffffffffffffffff1673ffffffffffffffffffffffffffffffffffffffff1681526020019081526020015f205f828254610974919061107a565b925050819055508373ffffffffffffffffffffffffffffffffffffffff167fe1fffcc4923d04b559f4d29a8bfc6cda04eb5b0d3c460751c2402c5c5cc9109c846040516109c19190610aec565b60405180910390a250505050565b5f8054906101000a900473ffffffffffffffffffffffffffffffffffffffff1681565b5f80fd5b5f80fd5b5f819050919050565b610a0c816109fa565b8114610a16575f80fd5b50565b5f81359050610a2781610a03565b92915050565b5f60208284031215610a4257610a416109f2565b5b5f610a4f84828501610a19565b91505092915050565b5f73ffffffffffffffffffffffffffffffffffffffff82169050919050565b5f610a8182610a58565b9050919050565b610a9181610a77565b8114610a9b575f80fd5b50565b5f81359050610aac81610a88565b92915050565b5f60208284031215610ac757610ac66109f2565b5b5f610ad484828501610a9e565b91505092915050565b610ae6816109fa565b82525050565b5f602082019050610aff5f830184610add565b92915050565b5f80fd5b5f80fd5b5f80fd5b5f8083601f840112610b2657610b25610b05565b5b8235905067ffffffffffffffff811115610b4357610b42610b09565b5b602083019150836001820283011115610b5f57610b5e610b0d565b5b9250929050565b5f805f805f60808688031215610b7f57610b7e6109f2565b5b5f610b8c88828901610a9e565b9550506020610b9d88828901610a19565b9450506040610bae88828901610a9e565b935050606086013567ffffffffffffffff811115610bcf57610bce6109f6565b5b610bdb88828901610b11565b92509250509295509295909350565b5f805f8060608587031215610c0257610c016109f2565b5b5f610c0f87828801610a9e565b9450506020610c2087828801610a19565b935050604085013567ffffffffffffffff811115610c4157610c406109f6565b5b610c4d87828801610b11565b925092505092959194509250565b5f819050919050565b5f610c7e610c79610c7484610a58565b610c5b565b610a58565b9050919050565b5f610c8f82610c64565b9050919050565b5f610ca082610c85565b9050919050565b610cb081610c96565b82525050565b5f602082019050610cc95f830184610ca7565b92915050565b5f82825260208201905092915050565b7f616d6f756e74207a65726f0000000000000000000000000000000000000000005f82015250565b5f610d13600b83610ccf565b9150610d1e82610cdf565b602082019050919050565b5f6020820190508181035f830152610d4081610d07565b9050919050565b7f696e73756666696369656e742062616c616e63650000000000000000000000005f82015250565b5f610d7b601483610ccf565b9150610d8682610d47565b602082019050919050565b5f6020820190508181035f830152610da881610d6f565b9050919050565b7f4e487b71000000000000000000000000000000000000000000000000000000005f52601160045260245ffd5b5f610de6826109fa565b9150610df1836109fa565b9250828203905081811115610e0957610e08610daf565b5b92915050565b610e1881610a77565b82525050565b5f604082019050610e315f830185610e0f565b610e3e6020830184610add565b9392505050565b5f8115159050919050565b610e5981610e45565b8114610e63575f80fd5b50565b5f81519050610e7481610e50565b92915050565b5f60208284031215610e8f57610e8e6109f2565b5b5f610e9c84828501610e66565b91505092915050565b7f7472616e73666572206661696c656400000000000000000000000000000000005f82015250565b5f610ed9600f83610ccf565b9150610ee482610ea5565b602082019050919050565b5f6020820190508181035f830152610f0681610ecd565b9050919050565b7f696e76616c696420746f6b656e000000000000000000000000000000000000005f82015250565b5f610f41600d83610ccf565b9150610f4c82610f0d565b602082019050919050565b5f6020820190508181035f830152610f6e81610f35565b9050919050565b7f6f6e6c7920746f6b656e20636f6e7472616374000000000000000000000000005f82015250565b5f610fa9601383610ccf565b9150610fb482610f75565b602082019050919050565b5f6020820190508181035f830152610fd681610f9d565b9050919050565b5f606082019050610ff05f830186610e0f565b610ffd6020830185610e0f565b61100a6040830184610add565b949350505050565b7f7472616e7366657246726f6d206661696c656420696e2063616c6c6261636b005f82015250565b5f611046601f83610ccf565b915061105182611012565b602082019050919050565b5f6020820190508181035f8301526110738161103a565b9050919050565b5f611084826109fa565b915061108f836109fa565b92508282019050808211156110a7576110a6610daf565b5b92915050565b7f7472616e7366657246726f6d206661696c6564000000000000000000000000005f82015250565b5f6110e1601383610ccf565b91506110ec826110ad565b602082019050919050565b5f6020820190508181035f83015261110e816110d5565b905091905056fea264697066735822122049e44c2994d4f055453bc942ab34f79d2651ebdd8bb717c41a54767343c9b91464736f6c63430008140033","linkReferences":{}},"methodIdentifiers":{"balanceOf(address)":"70a08231","deposit(uint256)":"b6b55f25","receiveApproval(address,uint256,address,bytes)":"8f4ffcb1","token()":"fc0c546a","tokensReceived(address,uint256,bytes)":"d0314263","withdraw(uint256)":"2e1a7d4d"},"id":49}