{"abi":[{"type":"constructor","inputs":[{"name":"_token","type":"address","internalType":"contract IERC20"}],"stateMutability":"nonpayable"},{"type":"fallback","stateMutability":"payable"},{"type":"receive","stateMutability":"payable"},{"type":"function","name":"MAX_RECENT_DEPOSITS","inputs":[],"outputs":[{"name":"","type":"uint256","internalType":"uint256"}],"stateMutability":"view"},{"type":"function","name":"balanceOf","inputs":[{"name":"_user","type":"address","internalType":"address"}],"outputs":[{"name":"","type":"uint256","internalType":"uint256"}],"stateMutability":"view"},{"type":"function","name":"deposit","inputs":[{"name":"_amount","type":"uint256","internalType":"uint256"}],"outputs":[],"stateMutability":"nonpayable"},{"type":"function","name":"getRecentDeposits","inputs":[],"outputs":[{"name":"","type":"tuple[]","internalType":"struct TokenBank.DepositRecord[]","components":[{"name":"user","type":"address","internalType":"address"},{"name":"amount","type":"uint256","internalType":"uint256"},{"name":"timestamp","type":"uint256","internalType":"uint256"}]}],"stateMutability":"view"},{"type":"function","name":"permitDeposit","inputs":[{"name":"owner","type":"address","internalType":"address"},{"name":"amount","type":"uint256","internalType":"uint256"},{"name":"deadline","type":"uint256","internalType":"uint256"},{"name":"v","type":"uint8","internalType":"uint8"},{"name":"r","type":"bytes32","internalType":"bytes32"},{"name":"s","type":"bytes32","internalType":"bytes32"}],"outputs":[],"stateMutability":"nonpayable"},{"type":"function","name":"receiveApproval","inputs":[{"name":"_from","type":"address","internalType":"address"},{"name":"_value","type":"uint256","internalType":"uint256"},{"name":"_token","type":"address","internalType":"address"},{"name":"","type":"bytes","internalType":"bytes"}],"outputs":[],"stateMutability":"nonpayable"},{"type":"function","name":"token","inputs":[],"outputs":[{"name":"","type":"address","internalType":"contract IERC20"}],"stateMutability":"view"},{"type":"function","name":"tokensReceived","inputs":[{"name":"from","type":"address","internalType":"address"},{"name":"amount","type":"uint256","internalType":"uint256"},{"name":"","type":"bytes","internalType":"bytes"}],"outputs":[],"stateMutability":"nonpayable"},{"type":"function","name":"withdraw","inputs":[{"name":"_amount","type":"uint256","internalType":"uint256"}],"outputs":[],"stateMutability":"nonpayable"},{"type":"event","name":"Deposit","inputs":[{"name":"user","type":"address","indexed":true,"internalType":"address"},{"name":"amount","type":"uint256","indexed":false,"internalType":"uint256"}],"anonymous":false},{"type":"event","name":"Withdraw","inputs":[{"name":"user","type":"address","indexed":true,"internalType":"address"},{"name":"amount","type":"uint256","indexed":false,"internalType":"uint256"}],"anonymous":false}],"bytecode":{"object":"0x608060405234801561000f575f5ffd5b50604051611c2e380380611c2e833981810160405281019061003191906100e5565b805f5f6101000a81548173ffffffffffffffffffffffffffffffffffffffff021916908373ffffffffffffffffffffffffffffffffffffffff16021790555050610110565b5f5ffd5b5f73ffffffffffffffffffffffffffffffffffffffff82169050919050565b5f6100a38261007a565b9050919050565b5f6100b482610099565b9050919050565b6100c4816100aa565b81146100ce575f5ffd5b50565b5f815190506100df816100bb565b92915050565b5f602082840312156100fa576100f9610076565b5b5f610107848285016100d1565b91505092915050565b611b118061011d5f395ff3fe608060405260043610610089575f3560e01c8063b6b55f2511610058578063b6b55f25146101b8578063cd79b5bc146101e0578063d03142631461020a578063fac89be014610232578063fc0c546a1461025c576100c9565b80632e1a7d4d1461010457806370a082311461012c5780638f4ffcb1146101685780638f7b1bca14610190576100c9565b366100c9576040517f08c379a00000000000000000000000000000000000000000000000000000000081526004016100c090610fc6565b60405180910390fd5b6040517f08c379a00000000000000000000000000000000000000000000000000000000081526004016100fb90610fc6565b60405180910390fd5b34801561010f575f5ffd5b5061012a6004803603810190610125919061101f565b610286565b005b348015610137575f5ffd5b50610152600480360381019061014d91906110a4565b6104c6565b60405161015f91906110de565b60405180910390f35b348015610173575f5ffd5b5061018e60048036038101906101899190611158565b61050c565b005b34801561019b575f5ffd5b506101b660048036038101906101b19190611245565b61067b565b005b3480156101c3575f5ffd5b506101de60048036038101906101d9919061101f565b610761565b005b3480156101eb575f5ffd5b506101f46107b0565b60405161020191906110de565b60405180910390f35b348015610215575f5ffd5b50610230600480360381019061022b91906112ce565b6107b5565b005b34801561023d575f5ffd5b50610246610895565b6040516102539190611445565b60405180910390f35b348015610267575f5ffd5b50610270610959565b60405161027d91906114c0565b60405180910390f35b5f81116102c8576040517f08c379a00000000000000000000000000000000000000000000000000000000081526004016102bf90611523565b60405180910390fd5b8060015f3373ffffffffffffffffffffffffffffffffffffffff1673ffffffffffffffffffffffffffffffffffffffff1681526020019081526020015f20541015610348576040517f08c379a000000000000000000000000000000000000000000000000000000000815260040161033f9061158b565b60405180910390fd5b8060015f3373ffffffffffffffffffffffffffffffffffffffff1673ffffffffffffffffffffffffffffffffffffffff1681526020019081526020015f205f82825461039491906115d6565b925050819055505f5f9054906101000a900473ffffffffffffffffffffffffffffffffffffffff1673ffffffffffffffffffffffffffffffffffffffff1663a9059cbb33836040518363ffffffff1660e01b81526004016103f6929190611618565b6020604051808303815f875af1158015610412573d5f5f3e3d5ffd5b505050506040513d601f19601f820116820180604052508101906104369190611674565b610475576040517f08c379a000000000000000000000000000000000000000000000000000000000815260040161046c906116e9565b60405180910390fd5b3373ffffffffffffffffffffffffffffffffffffffff167f884edad9ce6fa2440d8a54cc123490eb96d2768479d49ff9c7366125a9424364826040516104bb91906110de565b60405180910390a250565b5f60015f8373ffffffffffffffffffffffffffffffffffffffff1673ffffffffffffffffffffffffffffffffffffffff1681526020019081526020015f20549050919050565b5f5f9054906101000a900473ffffffffffffffffffffffffffffffffffffffff1673ffffffffffffffffffffffffffffffffffffffff168373ffffffffffffffffffffffffffffffffffffffff161461059a576040517f08c379a000000000000000000000000000000000000000000000000000000000815260040161059190611751565b60405180910390fd5b5f5f9054906101000a900473ffffffffffffffffffffffffffffffffffffffff1673ffffffffffffffffffffffffffffffffffffffff163373ffffffffffffffffffffffffffffffffffffffff1614610628576040517f08c379a000000000000000000000000000000000000000000000000000000000815260040161061f906117b9565b60405180910390fd5b5f841161066a576040517f08c379a000000000000000000000000000000000000000000000000000000000815260040161066190611523565b60405180910390fd5b610674858561097d565b5050505050565b5f85116106bd576040517f08c379a00000000000000000000000000000000000000000000000000000000081526004016106b490611523565b60405180910390fd5b5f5f9054906101000a900473ffffffffffffffffffffffffffffffffffffffff1673ffffffffffffffffffffffffffffffffffffffff1663d505accf873088888888886040518863ffffffff1660e01b815260040161072297969594939291906117f5565b5f604051808303815f87803b158015610739575f5ffd5b505af115801561074b573d5f5f3e3d5ffd5b50505050610759868661097d565b505050505050565b5f81116107a3576040517f08c379a000000000000000000000000000000000000000000000000000000000815260040161079a90611523565b60405180910390fd5b6107ad338261097d565b50565b600a81565b5f5f9054906101000a900473ffffffffffffffffffffffffffffffffffffffff1673ffffffffffffffffffffffffffffffffffffffff163373ffffffffffffffffffffffffffffffffffffffff1614610843576040517f08c379a000000000000000000000000000000000000000000000000000000000815260040161083a906117b9565b60405180910390fd5b5f8311610885576040517f08c379a000000000000000000000000000000000000000000000000000000000815260040161087c90611523565b60405180910390fd5b61088f8484610c1d565b50505050565b60606003805480602002602001604051908101604052809291908181526020015f905b82821015610950578382905f5260205f2090600302016040518060600160405290815f82015f9054906101000a900473ffffffffffffffffffffffffffffffffffffffff1673ffffffffffffffffffffffffffffffffffffffff1673ffffffffffffffffffffffffffffffffffffffff16815260200160018201548152602001600282015481525050815260200190600101906108b8565b50505050905090565b5f5f9054906101000a900473ffffffffffffffffffffffffffffffffffffffff1681565b805f5f9054906101000a900473ffffffffffffffffffffffffffffffffffffffff1673ffffffffffffffffffffffffffffffffffffffff166370a08231846040518263ffffffff1660e01b81526004016109d79190611862565b602060405180830381865afa1580156109f2573d5f5f3e3d5ffd5b505050506040513d601f19601f82011682018060405250810190610a16919061188f565b1015610a57576040517f08c379a0000000000000000000000000000000000000000000000000000000008152600401610a4e90611904565b60405180910390fd5b805f5f9054906101000a900473ffffffffffffffffffffffffffffffffffffffff1673ffffffffffffffffffffffffffffffffffffffff1663dd62ed3e84306040518363ffffffff1660e01b8152600401610ab3929190611922565b602060405180830381865afa158015610ace573d5f5f3e3d5ffd5b505050506040513d601f19601f82011682018060405250810190610af2919061188f565b1015610b33576040517f08c379a0000000000000000000000000000000000000000000000000000000008152600401610b2a90611993565b60405180910390fd5b5f5f9054906101000a900473ffffffffffffffffffffffffffffffffffffffff1673ffffffffffffffffffffffffffffffffffffffff166323b872dd8330846040518463ffffffff1660e01b8152600401610b90939291906119b1565b6020604051808303815f875af1158015610bac573d5f5f3e3d5ffd5b505050506040513d601f19601f82011682018060405250810190610bd09190611674565b610c0f576040517f08c379a0000000000000000000000000000000000000000000000000000000008152600401610c0690611a30565b60405180910390fd5b610c198282610c1d565b5050565b5f60015f8473ffffffffffffffffffffffffffffffffffffffff1673ffffffffffffffffffffffffffffffffffffffff1681526020019081526020015f205403610cc257600282908060018154018082558091505060019003905f5260205f20015f9091909190916101000a81548173ffffffffffffffffffffffffffffffffffffffff021916908373ffffffffffffffffffffffffffffffffffffffff1602179055505b8060015f8473ffffffffffffffffffffffffffffffffffffffff1673ffffffffffffffffffffffffffffffffffffffff1681526020019081526020015f205f828254610d0e9190611a4e565b925050819055508173ffffffffffffffffffffffffffffffffffffffff167fe1fffcc4923d04b559f4d29a8bfc6cda04eb5b0d3c460751c2402c5c5cc9109c82604051610d5b91906110de565b60405180910390a2600360405180606001604052808473ffffffffffffffffffffffffffffffffffffffff16815260200183815260200142815250908060018154018082558091505060019003905f5260205f2090600302015f909190919091505f820151815f015f6101000a81548173ffffffffffffffffffffffffffffffffffffffff021916908373ffffffffffffffffffffffffffffffffffffffff16021790555060208201518160010155604082015181600201555050600a6003805490501115610f68575f600190505b600380549050811015610f0a5760038181548110610e4b57610e4a611a81565b5b905f5260205f2090600302016003600183610e6691906115d6565b81548110610e7757610e76611a81565b5b905f5260205f2090600302015f82015f9054906101000a900473ffffffffffffffffffffffffffffffffffffffff16815f015f6101000a81548173ffffffffffffffffffffffffffffffffffffffff021916908373ffffffffffffffffffffffffffffffffffffffff16021790555060018201548160010155600282015481600201559050508080600101915050610e2a565b506003805480610f1d57610f1c611aae565b5b600190038181905f5260205f2090600302015f5f82015f6101000a81549073ffffffffffffffffffffffffffffffffffffffff0219169055600182015f9055600282015f9055505090555b5050565b5f82825260208201905092915050565b7f455448206e6f74206163636570746564000000000000000000000000000000005f82015250565b5f610fb0601083610f6c565b9150610fbb82610f7c565b602082019050919050565b5f6020820190508181035f830152610fdd81610fa4565b9050919050565b5f5ffd5b5f5ffd5b5f819050919050565b610ffe81610fec565b8114611008575f5ffd5b50565b5f8135905061101981610ff5565b92915050565b5f6020828403121561103457611033610fe4565b5b5f6110418482850161100b565b91505092915050565b5f73ffffffffffffffffffffffffffffffffffffffff82169050919050565b5f6110738261104a565b9050919050565b61108381611069565b811461108d575f5ffd5b50565b5f8135905061109e8161107a565b92915050565b5f602082840312156110b9576110b8610fe4565b5b5f6110c684828501611090565b91505092915050565b6110d881610fec565b82525050565b5f6020820190506110f15f8301846110cf565b92915050565b5f5ffd5b5f5ffd5b5f5ffd5b5f5f83601f840112611118576111176110f7565b5b8235905067ffffffffffffffff811115611135576111346110fb565b5b602083019150836001820283011115611151576111506110ff565b5b9250929050565b5f5f5f5f5f6080868803121561117157611170610fe4565b5b5f61117e88828901611090565b955050602061118f8882890161100b565b94505060406111a088828901611090565b935050606086013567ffffffffffffffff8111156111c1576111c0610fe8565b5b6111cd88828901611103565b92509250509295509295909350565b5f60ff82169050919050565b6111f1816111dc565b81146111fb575f5ffd5b50565b5f8135905061120c816111e8565b92915050565b5f819050919050565b61122481611212565b811461122e575f5ffd5b50565b5f8135905061123f8161121b565b92915050565b5f5f5f5f5f5f60c0878903121561125f5761125e610fe4565b5b5f61126c89828a01611090565b965050602061127d89828a0161100b565b955050604061128e89828a0161100b565b945050606061129f89828a016111fe565b93505060806112b089828a01611231565b92505060a06112c189828a01611231565b9150509295509295509295565b5f5f5f5f606085870312156112e6576112e5610fe4565b5b5f6112f387828801611090565b94505060206113048782880161100b565b935050604085013567ffffffffffffffff81111561132557611324610fe8565b5b61133187828801611103565b925092505092959194509250565b5f81519050919050565b5f82825260208201905092915050565b5f819050602082019050919050565b61137181611069565b82525050565b61138081610fec565b82525050565b606082015f82015161139a5f850182611368565b5060208201516113ad6020850182611377565b5060408201516113c06040850182611377565b50505050565b5f6113d18383611386565b60608301905092915050565b5f602082019050919050565b5f6113f38261133f565b6113fd8185611349565b935061140883611359565b805f5b8381101561143857815161141f88826113c6565b975061142a836113dd565b92505060018101905061140b565b5085935050505092915050565b5f6020820190508181035f83015261145d81846113e9565b905092915050565b5f819050919050565b5f61148861148361147e8461104a565b611465565b61104a565b9050919050565b5f6114998261146e565b9050919050565b5f6114aa8261148f565b9050919050565b6114ba816114a0565b82525050565b5f6020820190506114d35f8301846114b1565b92915050565b7f616d6f756e74207a65726f0000000000000000000000000000000000000000005f82015250565b5f61150d600b83610f6c565b9150611518826114d9565b602082019050919050565b5f6020820190508181035f83015261153a81611501565b9050919050565b7f696e73756666696369656e742062616c616e63650000000000000000000000005f82015250565b5f611575601483610f6c565b915061158082611541565b602082019050919050565b5f6020820190508181035f8301526115a281611569565b9050919050565b7f4e487b71000000000000000000000000000000000000000000000000000000005f52601160045260245ffd5b5f6115e082610fec565b91506115eb83610fec565b9250828203905081811115611603576116026115a9565b5b92915050565b61161281611069565b82525050565b5f60408201905061162b5f830185611609565b61163860208301846110cf565b9392505050565b5f8115159050919050565b6116538161163f565b811461165d575f5ffd5b50565b5f8151905061166e8161164a565b92915050565b5f6020828403121561168957611688610fe4565b5b5f61169684828501611660565b91505092915050565b7f7472616e73666572206661696c656400000000000000000000000000000000005f82015250565b5f6116d3600f83610f6c565b91506116de8261169f565b602082019050919050565b5f6020820190508181035f830152611700816116c7565b9050919050565b7f696e76616c696420746f6b656e000000000000000000000000000000000000005f82015250565b5f61173b600d83610f6c565b915061174682611707565b602082019050919050565b5f6020820190508181035f8301526117688161172f565b9050919050565b7f6f6e6c7920746f6b656e20636f6e7472616374000000000000000000000000005f82015250565b5f6117a3601383610f6c565b91506117ae8261176f565b602082019050919050565b5f6020820190508181035f8301526117d081611797565b9050919050565b6117e0816111dc565b82525050565b6117ef81611212565b82525050565b5f60e0820190506118085f83018a611609565b6118156020830189611609565b61182260408301886110cf565b61182f60608301876110cf565b61183c60808301866117d7565b61184960a08301856117e6565b61185660c08301846117e6565b98975050505050505050565b5f6020820190506118755f830184611609565b92915050565b5f8151905061188981610ff5565b92915050565b5f602082840312156118a4576118a3610fe4565b5b5f6118b18482850161187b565b91505092915050565b7f696e73756666696369656e7420746f6b656e2062616c616e63650000000000005f82015250565b5f6118ee601a83610f6c565b91506118f9826118ba565b602082019050919050565b5f6020820190508181035f83015261191b816118e2565b9050919050565b5f6040820190506119355f830185611609565b6119426020830184611609565b9392505050565b7f696e73756666696369656e7420616c6c6f77616e6365000000000000000000005f82015250565b5f61197d601683610f6c565b915061198882611949565b602082019050919050565b5f6020820190508181035f8301526119aa81611971565b9050919050565b5f6060820190506119c45f830186611609565b6119d16020830185611609565b6119de60408301846110cf565b949350505050565b7f7472616e7366657246726f6d206661696c6564000000000000000000000000005f82015250565b5f611a1a601383610f6c565b9150611a25826119e6565b602082019050919050565b5f6020820190508181035f830152611a4781611a0e565b9050919050565b5f611a5882610fec565b9150611a6383610fec565b9250828201905080821115611a7b57611a7a6115a9565b5b92915050565b7f4e487b71000000000000000000000000000000000000000000000000000000005f52603260045260245ffd5b7f4e487b71000000000000000000000000000000000000000000000000000000005f52603160045260245ffdfea264697066735822122028330b0ef516803ab564508b5d533fa2aeadbe67f8f48b48d17381acfade530064736f6c634300081e0033","linkReferences":{}},"methodIdentifiers":{"MAX_RECENT_DEPOSITS()":"cd79b5bc","balanceOf(address)":"70a08231","deposit(uint256)":"b6b55f25","getRecentDeposits()":"fac89be0","permitDeposit(address,uint256,uint256,uint8,bytes32,bytes32)":"8f7b1bca","receiveApproval(address,uint256,address,bytes)":"8f4ffcb1","token()":"fc0c546a","tokensReceived(address,uint256,bytes)":"d0314263","withdraw(uint256)":"2e1a7d4d"},"id":20}