{"abi":[{"type":"constructor","inputs":[{"name":"_initialSupply","type":"uint256","internalType":"uint256"},{"name":"_tokenName","type":"string","internalType":"string"},{"name":"_tokenSymbol","type":"string","internalType":"string"}],"stateMutability":"nonpayable"},{"type":"function","name":"DOMAIN_SEPARATOR","inputs":[],"outputs":[{"name":"","type":"bytes32","internalType":"bytes32"}],"stateMutability":"view"},{"type":"function","name":"allowance","inputs":[{"name":"","type":"address","internalType":"address"},{"name":"","type":"address","internalType":"address"}],"outputs":[{"name":"","type":"uint256","internalType":"uint256"}],"stateMutability":"view"},{"type":"function","name":"approve","inputs":[{"name":"_spender","type":"address","internalType":"address"},{"name":"_value","type":"uint256","internalType":"uint256"}],"outputs":[{"name":"success","type":"bool","internalType":"bool"}],"stateMutability":"nonpayable"},{"type":"function","name":"approveAndCall","inputs":[{"name":"_spender","type":"address","internalType":"address"},{"name":"_value","type":"uint256","internalType":"uint256"},{"name":"_extraData","type":"bytes","internalType":"bytes"}],"outputs":[{"name":"success","type":"bool","internalType":"bool"}],"stateMutability":"nonpayable"},{"type":"function","name":"balanceOf","inputs":[{"name":"","type":"address","internalType":"address"}],"outputs":[{"name":"","type":"uint256","internalType":"uint256"}],"stateMutability":"view"},{"type":"function","name":"burn","inputs":[{"name":"_value","type":"uint256","internalType":"uint256"}],"outputs":[{"name":"success","type":"bool","internalType":"bool"}],"stateMutability":"nonpayable"},{"type":"function","name":"burnFrom","inputs":[{"name":"_from","type":"address","internalType":"address"},{"name":"_value","type":"uint256","internalType":"uint256"}],"outputs":[{"name":"success","type":"bool","internalType":"bool"}],"stateMutability":"nonpayable"},{"type":"function","name":"decimals","inputs":[],"outputs":[{"name":"","type":"uint8","internalType":"uint8"}],"stateMutability":"view"},{"type":"function","name":"name","inputs":[],"outputs":[{"name":"","type":"string","internalType":"string"}],"stateMutability":"view"},{"type":"function","name":"nonces","inputs":[{"name":"","type":"address","internalType":"address"}],"outputs":[{"name":"","type":"uint256","internalType":"uint256"}],"stateMutability":"view"},{"type":"function","name":"permit","inputs":[{"name":"owner","type":"address","internalType":"address"},{"name":"spender","type":"address","internalType":"address"},{"name":"value","type":"uint256","internalType":"uint256"},{"name":"deadline","type":"uint256","internalType":"uint256"},{"name":"v","type":"uint8","internalType":"uint8"},{"name":"r","type":"bytes32","internalType":"bytes32"},{"name":"s","type":"bytes32","internalType":"bytes32"}],"outputs":[],"stateMutability":"nonpayable"},{"type":"function","name":"symbol","inputs":[],"outputs":[{"name":"","type":"string","internalType":"string"}],"stateMutability":"view"},{"type":"function","name":"totalSupply","inputs":[],"outputs":[{"name":"","type":"uint256","internalType":"uint256"}],"stateMutability":"view"},{"type":"function","name":"transfer","inputs":[{"name":"_to","type":"address","internalType":"address"},{"name":"_value","type":"uint256","internalType":"uint256"}],"outputs":[{"name":"success","type":"bool","internalType":"bool"}],"stateMutability":"nonpayable"},{"type":"function","name":"transferFrom","inputs":[{"name":"_from","type":"address","internalType":"address"},{"name":"_to","type":"address","internalType":"address"},{"name":"_value","type":"uint256","internalType":"uint256"}],"outputs":[{"name":"success","type":"bool","internalType":"bool"}],"stateMutability":"nonpayable"},{"type":"function","name":"transferWithCallback","inputs":[{"name":"_to","type":"address","internalType":"address"},{"name":"_value","type":"uint256","internalType":"uint256"},{"name":"_data","type":"bytes","internalType":"bytes"}],"outputs":[{"name":"","type":"bool","internalType":"bool"}],"stateMutability":"nonpayable"},{"type":"event","name":"Approval","inputs":[{"name":"owner","type":"address","indexed":true,"internalType":"address"},{"name":"spender","type":"address","indexed":true,"internalType":"address"},{"name":"value","type":"uint256","indexed":false,"internalType":"uint256"}],"anonymous":false},{"type":"event","name":"Burn","inputs":[{"name":"from","type":"address","indexed":true,"internalType":"address"},{"name":"value","type":"uint256","indexed":false,"internalType":"uint256"}],"anonymous":false},{"type":"event","name":"Transfer","inputs":[{"name":"from","type":"address","indexed":true,"internalType":"address"},{"name":"to","type":"address","indexed":true,"internalType":"address"},{"name":"value","type":"uint256","indexed":false,"internalType":"uint256"}],"anonymous":false}],"bytecode":{"object":"0x610120604052601260025f6101000a81548160ff021916908360ff16021790555034801561002b575f5ffd5b50604051612f5c380380612f5c833981810160405281019061004d9190610389565b60025f9054906101000a900460ff1660ff16600a61006b919061056d565b8361007691906105b7565b60038190555060035460045f3373ffffffffffffffffffffffffffffffffffffffff1673ffffffffffffffffffffffffffffffffffffffff1681526020019081526020015f2081905550815f90816100ce91906107ff565b5080600190816100de91906107ff565b507f6e71edae12b1b97f4d1f60370fef10105fa2faae0126114a169c64845d6126c960e081815250507f8b73c3c69bb8fe3d512ecc4cf759cc79239f7b179b0ffacaa9a75d522b39400f61010081815250504660a081815250503073ffffffffffffffffffffffffffffffffffffffff1660c08173ffffffffffffffffffffffffffffffffffffffff168152505061017f610100518361018e60201b60201c565b60808181525050505050610985565b5f8282805190602001206040518060400160405280600181526020017f31000000000000000000000000000000000000000000000000000000000000008152508051906020012046306040516020016101eb959493929190610934565b60405160208183030381529060405280519060200120905092915050565b5f604051905090565b5f5ffd5b5f5ffd5b5f819050919050565b61022c8161021a565b8114610236575f5ffd5b50565b5f8151905061024781610223565b92915050565b5f5ffd5b5f5ffd5b5f601f19601f8301169050919050565b7f4e487b71000000000000000000000000000000000000000000000000000000005f52604160045260245ffd5b61029b82610255565b810181811067ffffffffffffffff821117156102ba576102b9610265565b5b80604052505050565b5f6102cc610209565b90506102d88282610292565b919050565b5f67ffffffffffffffff8211156102f7576102f6610265565b5b61030082610255565b9050602081019050919050565b8281835e5f83830152505050565b5f61032d610328846102dd565b6102c3565b90508281526020810184848401111561034957610348610251565b5b61035484828561030d565b509392505050565b5f82601f8301126103705761036f61024d565b5b815161038084826020860161031b565b91505092915050565b5f5f5f606084860312156103a05761039f610212565b5b5f6103ad86828701610239565b935050602084015167ffffffffffffffff8111156103ce576103cd610216565b5b6103da8682870161035c565b925050604084015167ffffffffffffffff8111156103fb576103fa610216565b5b6104078682870161035c565b9150509250925092565b7f4e487b71000000000000000000000000000000000000000000000000000000005f52601160045260245ffd5b5f8160011c9050919050565b5f5f8291508390505b60018511156104935780860481111561046f5761046e610411565b5b600185161561047e5780820291505b808102905061048c8561043e565b9450610453565b94509492505050565b5f826104ab5760019050610566565b816104b8575f9050610566565b81600181146104ce57600281146104d857610507565b6001915050610566565b60ff8411156104ea576104e9610411565b5b8360020a91508482111561050157610500610411565b5b50610566565b5060208310610133831016604e8410600b841016171561053c5782820a90508381111561053757610536610411565b5b610566565b610549848484600161044a565b925090508184048111156105605761055f610411565b5b81810290505b9392505050565b5f6105778261021a565b91506105828361021a565b92506105af7fffffffffffffffffffffffffffffffffffffffffffffffffffffffffffffffff848461049c565b905092915050565b5f6105c18261021a565b91506105cc8361021a565b92508282026105da8161021a565b915082820484148315176105f1576105f0610411565b5b5092915050565b5f81519050919050565b7f4e487b71000000000000000000000000000000000000000000000000000000005f52602260045260245ffd5b5f600282049050600182168061064657607f821691505b60208210810361065957610658610602565b5b50919050565b5f819050815f5260205f209050919050565b5f6020601f8301049050919050565b5f82821b905092915050565b5f600883026106bb7fffffffffffffffffffffffffffffffffffffffffffffffffffffffffffffffff82610680565b6106c58683610680565b95508019841693508086168417925050509392505050565b5f819050919050565b5f6107006106fb6106f68461021a565b6106dd565b61021a565b9050919050565b5f819050919050565b610719836106e6565b61072d61072582610707565b84845461068c565b825550505050565b5f5f905090565b610744610735565b61074f818484610710565b505050565b5b81811015610772576107675f8261073c565b600181019050610755565b5050565b601f8211156107b7576107888161065f565b61079184610671565b810160208510156107a0578190505b6107b46107ac85610671565b830182610754565b50505b505050565b5f82821c905092915050565b5f6107d75f19846008026107bc565b1980831691505092915050565b5f6107ef83836107c8565b9150826002028217905092915050565b610808826105f8565b67ffffffffffffffff81111561082157610820610265565b5b61082b825461062f565b610836828285610776565b5f60209050601f831160018114610867575f8415610855578287015190505b61085f85826107e4565b8655506108c6565b601f1984166108758661065f565b5f5b8281101561089c57848901518255600182019150602085019450602081019050610877565b868310156108b957848901516108b5601f8916826107c8565b8355505b6001600288020188555050505b505050505050565b5f819050919050565b6108e0816108ce565b82525050565b6108ef8161021a565b82525050565b5f73ffffffffffffffffffffffffffffffffffffffff82169050919050565b5f61091e826108f5565b9050919050565b61092e81610914565b82525050565b5f60a0820190506109475f8301886108d7565b61095460208301876108d7565b61096160408301866108d7565b61096e60608301856108e6565b61097b6080830184610925565b9695505050505050565b60805160a05160c05160e0516101005161259a6109c25f395f61079f01525f610ff901525f61071f01525f6106f501525f610774015261259a5ff3fe608060405234801561000f575f5ffd5b50600436106100fe575f3560e01c806379cc679011610095578063cae9ca5111610064578063cae9ca51146102e8578063d313919514610318578063d505accf14610348578063dd62ed3e14610364576100fe565b806379cc67901461023a5780637ecebe001461026a57806395d89b411461029a578063a9059cbb146102b8576100fe565b8063313ce567116100d1578063313ce5671461019e5780633644e515146101bc57806342966c68146101da57806370a082311461020a576100fe565b806306fdde0314610102578063095ea7b31461012057806318160ddd1461015057806323b872dd1461016e575b5f5ffd5b61010a610394565b604051610117919061178d565b60405180910390f35b61013a6004803603810190610135919061184b565b61041f565b60405161014791906118a3565b60405180910390f35b61015861057a565b60405161016591906118cb565b60405180910390f35b610188600480360381019061018391906118e4565b610580565b60405161019591906118a3565b60405180910390f35b6101a66106e0565b6040516101b3919061194f565b60405180910390f35b6101c46106f2565b6040516101d19190611980565b60405180910390f35b6101f460048036038101906101ef9190611999565b610851565b60405161020191906118a3565b60405180910390f35b610224600480360381019061021f91906119c4565b6109f9565b60405161023191906118cb565b60405180910390f35b610254600480360381019061024f919061184b565b610a0e565b60405161026191906118a3565b60405180910390f35b610284600480360381019061027f91906119c4565b610d00565b60405161029191906118cb565b60405180910390f35b6102a2610d15565b6040516102af919061178d565b60405180910390f35b6102d260048036038101906102cd919061184b565b610da1565b6040516102df91906118a3565b60405180910390f35b61030260048036038101906102fd9190611a50565b610db7565b60405161030f91906118a3565b60405180910390f35b610332600480360381019061032d9190611a50565b610e80565b60405161033f91906118a3565b60405180910390f35b610362600480360381019061035d9190611b15565b610fb3565b005b61037e60048036038101906103799190611bb2565b6112e6565b60405161038b91906118cb565b60405180910390f35b5f80546103a090611c1d565b80601f01602080910402602001604051908101604052809291908181526020018280546103cc90611c1d565b80156104175780601f106103ee57610100808354040283529160200191610417565b820191905f5260205f20905b8154815290600101906020018083116103fa57829003601f168201915b505050505081565b5f5f73ffffffffffffffffffffffffffffffffffffffff168373ffffffffffffffffffffffffffffffffffffffff160361048e576040517f08c379a000000000000000000000000000000000000000000000000000000000815260040161048590611c97565b60405180910390fd5b8160055f3373ffffffffffffffffffffffffffffffffffffffff1673ffffffffffffffffffffffffffffffffffffffff1681526020019081526020015f205f8573ffffffffffffffffffffffffffffffffffffffff1673ffffffffffffffffffffffffffffffffffffffff1681526020019081526020015f20819055508273ffffffffffffffffffffffffffffffffffffffff163373ffffffffffffffffffffffffffffffffffffffff167f8c5be1e5ebec7d5bd14f71427d1e84f3dd0314c0f7b2291e5b200ac8c7c3b9258460405161056891906118cb565b60405180910390a36001905092915050565b60035481565b5f60055f8573ffffffffffffffffffffffffffffffffffffffff1673ffffffffffffffffffffffffffffffffffffffff1681526020019081526020015f205f3373ffffffffffffffffffffffffffffffffffffffff1673ffffffffffffffffffffffffffffffffffffffff1681526020019081526020015f205482111561063c576040517f08c379a000000000000000000000000000000000000000000000000000000000815260040161063390611cff565b60405180910390fd5b8160055f8673ffffffffffffffffffffffffffffffffffffffff1673ffffffffffffffffffffffffffffffffffffffff1681526020019081526020015f205f3373ffffffffffffffffffffffffffffffffffffffff1673ffffffffffffffffffffffffffffffffffffffff1681526020019081526020015f205f8282546106c39190611d4a565b925050819055506106d5848484611306565b600190509392505050565b60025f9054906101000a900460ff1681565b5f7f00000000000000000000000000000000000000000000000000000000000000004614801561076d57507f000000000000000000000000000000000000000000000000000000000000000073ffffffffffffffffffffffffffffffffffffffff163073ffffffffffffffffffffffffffffffffffffffff16145b1561079a577f0000000000000000000000000000000000000000000000000000000000000000905061084e565b61084b7f00000000000000000000000000000000000000000000000000000000000000005f80546107ca90611c1d565b80601f01602080910402602001604051908101604052809291908181526020018280546107f690611c1d565b80156108415780601f1061081857610100808354040283529160200191610841565b820191905f5260205f20905b81548152906001019060200180831161082457829003601f168201915b5050505050611691565b90505b90565b5f8160045f3373ffffffffffffffffffffffffffffffffffffffff1673ffffffffffffffffffffffffffffffffffffffff1681526020019081526020015f205410156108d2576040517f08c379a00000000000000000000000000000000000000000000000000000000081526004016108c990611dc7565b60405180910390fd5b8160045f3373ffffffffffffffffffffffffffffffffffffffff1673ffffffffffffffffffffffffffffffffffffffff1681526020019081526020015f205f82825461091e9190611d4a565b925050819055508160035f8282546109369190611d4a565b925050819055503373ffffffffffffffffffffffffffffffffffffffff167fcc16f5dbb4873280815c1ee09dbd06736cffcc184412cf7a71a0fdb75d397ca58360405161098391906118cb565b60405180910390a25f73ffffffffffffffffffffffffffffffffffffffff163373ffffffffffffffffffffffffffffffffffffffff167fddf252ad1be2c89b69c2b068fc378daa952ba7f163c4a11628f55a4df523b3ef846040516109e891906118cb565b60405180910390a360019050919050565b6004602052805f5260405f205f915090505481565b5f8160045f8573ffffffffffffffffffffffffffffffffffffffff1673ffffffffffffffffffffffffffffffffffffffff1681526020019081526020015f20541015610a8f576040517f08c379a0000000000000000000000000000000000000000000000000000000008152600401610a8690611dc7565b60405180910390fd5b60055f8473ffffffffffffffffffffffffffffffffffffffff1673ffffffffffffffffffffffffffffffffffffffff1681526020019081526020015f205f3373ffffffffffffffffffffffffffffffffffffffff1673ffffffffffffffffffffffffffffffffffffffff1681526020019081526020015f2054821115610b4a576040517f08c379a0000000000000000000000000000000000000000000000000000000008152600401610b4190611cff565b60405180910390fd5b8160045f8573ffffffffffffffffffffffffffffffffffffffff1673ffffffffffffffffffffffffffffffffffffffff1681526020019081526020015f205f828254610b969190611d4a565b925050819055508160055f8573ffffffffffffffffffffffffffffffffffffffff1673ffffffffffffffffffffffffffffffffffffffff1681526020019081526020015f205f3373ffffffffffffffffffffffffffffffffffffffff1673ffffffffffffffffffffffffffffffffffffffff1681526020019081526020015f205f828254610c249190611d4a565b925050819055508160035f828254610c3c9190611d4a565b925050819055508273ffffffffffffffffffffffffffffffffffffffff167fcc16f5dbb4873280815c1ee09dbd06736cffcc184412cf7a71a0fdb75d397ca583604051610c8991906118cb565b60405180910390a25f73ffffffffffffffffffffffffffffffffffffffff168373ffffffffffffffffffffffffffffffffffffffff167fddf252ad1be2c89b69c2b068fc378daa952ba7f163c4a11628f55a4df523b3ef84604051610cee91906118cb565b60405180910390a36001905092915050565b6006602052805f5260405f205f915090505481565b60018054610d2290611c1d565b80601f0160208091040260200160405190810160405280929190818152602001828054610d4e90611c1d565b8015610d995780601f10610d7057610100808354040283529160200191610d99565b820191905f5260205f20905b815481529060010190602001808311610d7c57829003601f168201915b505050505081565b5f610dad338484611306565b6001905092915050565b5f610dc2858561041f565b610e01576040517f08c379a0000000000000000000000000000000000000000000000000000000008152600401610df890611e2f565b60405180910390fd5b5f8590508073ffffffffffffffffffffffffffffffffffffffff16638f4ffcb133873088886040518663ffffffff1660e01b8152600401610e46959493929190611ea6565b5f604051808303815f87803b158015610e5d575f5ffd5b505af1158015610e6f573d5f5f3e3d5ffd5b505050506001915050949350505050565b5f610e8c338686611306565b610e958561170c565b15610fa7578473ffffffffffffffffffffffffffffffffffffffff1663d0314263338686866040518563ffffffff1660e01b8152600401610ed99493929190611ef2565b5f604051808303815f87803b158015610ef0575f5ffd5b505af1925050508015610f01575060015b610fa657610f0d611f3c565b806308c379a003610f695750610f21611fb9565b80610f2c5750610f6b565b806040517f08c379a0000000000000000000000000000000000000000000000000000000008152600401610f60919061178d565b60405180910390fd5b505b6040517f08c379a0000000000000000000000000000000000000000000000000000000008152600401610f9d90612092565b60405180910390fd5b5b60019050949350505050565b42841015610ff6576040517f08c379a0000000000000000000000000000000000000000000000000000000008152600401610fed906120fa565b60405180910390fd5b5f7f000000000000000000000000000000000000000000000000000000000000000088888860065f8d73ffffffffffffffffffffffffffffffffffffffff1673ffffffffffffffffffffffffffffffffffffffff1681526020019081526020015f205f81548092919061106890612118565b91905055896040516020016110829695949392919061215f565b6040516020818303038152906040528051906020012090505f6110a36106f2565b826040516020016110b5929190612232565b6040516020818303038152906040528051906020012090505f6001828787876040515f81526020016040526040516110f09493929190612268565b6020604051602081039080840390855afa158015611110573d5f5f3e3d5ffd5b5050506020604051035190505f73ffffffffffffffffffffffffffffffffffffffff168173ffffffffffffffffffffffffffffffffffffffff160361118a576040517f08c379a0000000000000000000000000000000000000000000000000000000008152600401611181906122f5565b60405180910390fd5b8973ffffffffffffffffffffffffffffffffffffffff168173ffffffffffffffffffffffffffffffffffffffff16146111f8576040517f08c379a00000000000000000000000000000000000000000000000000000000081526004016111ef9061235d565b60405180910390fd5b8760055f8c73ffffffffffffffffffffffffffffffffffffffff1673ffffffffffffffffffffffffffffffffffffffff1681526020019081526020015f205f8b73ffffffffffffffffffffffffffffffffffffffff1673ffffffffffffffffffffffffffffffffffffffff1681526020019081526020015f20819055508873ffffffffffffffffffffffffffffffffffffffff168a73ffffffffffffffffffffffffffffffffffffffff167f8c5be1e5ebec7d5bd14f71427d1e84f3dd0314c0f7b2291e5b200ac8c7c3b9258a6040516112d291906118cb565b60405180910390a350505050505050505050565b6005602052815f5260405f20602052805f5260405f205f91509150505481565b5f73ffffffffffffffffffffffffffffffffffffffff168373ffffffffffffffffffffffffffffffffffffffff1603611374576040517f08c379a000000000000000000000000000000000000000000000000000000000815260040161136b906123c5565b60405180910390fd5b5f73ffffffffffffffffffffffffffffffffffffffff168273ffffffffffffffffffffffffffffffffffffffff16036113e2576040517f08c379a00000000000000000000000000000000000000000000000000000000081526004016113d99061242d565b60405180910390fd5b8060045f8573ffffffffffffffffffffffffffffffffffffffff1673ffffffffffffffffffffffffffffffffffffffff1681526020019081526020015f20541015611462576040517f08c379a000000000000000000000000000000000000000000000000000000000815260040161145990612495565b60405180910390fd5b5f60045f8473ffffffffffffffffffffffffffffffffffffffff1673ffffffffffffffffffffffffffffffffffffffff1681526020019081526020015f205460045f8673ffffffffffffffffffffffffffffffffffffffff1673ffffffffffffffffffffffffffffffffffffffff1681526020019081526020015f20546114e991906124b3565b90508160045f8673ffffffffffffffffffffffffffffffffffffffff1673ffffffffffffffffffffffffffffffffffffffff1681526020019081526020015f205f8282546115379190611d4a565b925050819055508160045f8573ffffffffffffffffffffffffffffffffffffffff1673ffffffffffffffffffffffffffffffffffffffff1681526020019081526020015f205f82825461158a91906124b3565b925050819055508060045f8573ffffffffffffffffffffffffffffffffffffffff1673ffffffffffffffffffffffffffffffffffffffff1681526020019081526020015f205460045f8773ffffffffffffffffffffffffffffffffffffffff1673ffffffffffffffffffffffffffffffffffffffff1681526020019081526020015f205461161891906124b3565b14611626576116256124e6565b5b8273ffffffffffffffffffffffffffffffffffffffff168473ffffffffffffffffffffffffffffffffffffffff167fddf252ad1be2c89b69c2b068fc378daa952ba7f163c4a11628f55a4df523b3ef8460405161168391906118cb565b60405180910390a350505050565b5f8282805190602001206040518060400160405280600181526020017f31000000000000000000000000000000000000000000000000000000000000008152508051906020012046306040516020016116ee959493929190612513565b60405160208183030381529060405280519060200120905092915050565b5f5f823b90505f8111915050919050565b5f81519050919050565b5f82825260208201905092915050565b8281835e5f83830152505050565b5f601f19601f8301169050919050565b5f61175f8261171d565b6117698185611727565b9350611779818560208601611737565b61178281611745565b840191505092915050565b5f6020820190508181035f8301526117a58184611755565b905092915050565b5f604051905090565b5f5ffd5b5f5ffd5b5f73ffffffffffffffffffffffffffffffffffffffff82169050919050565b5f6117e7826117be565b9050919050565b6117f7816117dd565b8114611801575f5ffd5b50565b5f81359050611812816117ee565b92915050565b5f819050919050565b61182a81611818565b8114611834575f5ffd5b50565b5f8135905061184581611821565b92915050565b5f5f60408385031215611861576118606117b6565b5b5f61186e85828601611804565b925050602061187f85828601611837565b9150509250929050565b5f8115159050919050565b61189d81611889565b82525050565b5f6020820190506118b65f830184611894565b92915050565b6118c581611818565b82525050565b5f6020820190506118de5f8301846118bc565b92915050565b5f5f5f606084860312156118fb576118fa6117b6565b5b5f61190886828701611804565b935050602061191986828701611804565b925050604061192a86828701611837565b9150509250925092565b5f60ff82169050919050565b61194981611934565b82525050565b5f6020820190506119625f830184611940565b92915050565b5f819050919050565b61197a81611968565b82525050565b5f6020820190506119935f830184611971565b92915050565b5f602082840312156119ae576119ad6117b6565b5b5f6119bb84828501611837565b91505092915050565b5f602082840312156119d9576119d86117b6565b5b5f6119e684828501611804565b91505092915050565b5f5ffd5b5f5ffd5b5f5ffd5b5f5f83601f840112611a1057611a0f6119ef565b5b8235905067ffffffffffffffff811115611a2d57611a2c6119f3565b5b602083019150836001820283011115611a4957611a486119f7565b5b9250929050565b5f5f5f5f60608587031215611a6857611a676117b6565b5b5f611a7587828801611804565b9450506020611a8687828801611837565b935050604085013567ffffffffffffffff811115611aa757611aa66117ba565b5b611ab3878288016119fb565b925092505092959194509250565b611aca81611934565b8114611ad4575f5ffd5b50565b5f81359050611ae581611ac1565b92915050565b611af481611968565b8114611afe575f5ffd5b50565b5f81359050611b0f81611aeb565b92915050565b5f5f5f5f5f5f5f60e0888a031215611b3057611b2f6117b6565b5b5f611b3d8a828b01611804565b9750506020611b4e8a828b01611804565b9650506040611b5f8a828b01611837565b9550506060611b708a828b01611837565b9450506080611b818a828b01611ad7565b93505060a0611b928a828b01611b01565b92505060c0611ba38a828b01611b01565b91505092959891949750929550565b5f5f60408385031215611bc857611bc76117b6565b5b5f611bd585828601611804565b9250506020611be685828601611804565b9150509250929050565b7f4e487b71000000000000000000000000000000000000000000000000000000005f52602260045260245ffd5b5f6002820490506001821680611c3457607f821691505b602082108103611c4757611c46611bf0565b5b50919050565b7f417070726f766520746f207a65726f20616464726573730000000000000000005f82015250565b5f611c81601783611727565b9150611c8c82611c4d565b602082019050919050565b5f6020820190508181035f830152611cae81611c75565b9050919050565b7f416c6c6f77616e636520657863656564656400000000000000000000000000005f82015250565b5f611ce9601283611727565b9150611cf482611cb5565b602082019050919050565b5f6020820190508181035f830152611d1681611cdd565b9050919050565b7f4e487b71000000000000000000000000000000000000000000000000000000005f52601160045260245ffd5b5f611d5482611818565b9150611d5f83611818565b9250828203905081811115611d7757611d76611d1d565b5b92915050565b7f496e73756666696369656e742062616c616e636520666f72206275726e0000005f82015250565b5f611db1601d83611727565b9150611dbc82611d7d565b602082019050919050565b5f6020820190508181035f830152611dde81611da5565b9050919050565b7f417070726f76616c206661696c656400000000000000000000000000000000005f82015250565b5f611e19600f83611727565b9150611e2482611de5565b602082019050919050565b5f6020820190508181035f830152611e4681611e0d565b9050919050565b611e56816117dd565b82525050565b5f82825260208201905092915050565b828183375f83830152505050565b5f611e858385611e5c565b9350611e92838584611e6c565b611e9b83611745565b840190509392505050565b5f608082019050611eb95f830188611e4d565b611ec660208301876118bc565b611ed36040830186611e4d565b8181036060830152611ee6818486611e7a565b90509695505050505050565b5f606082019050611f055f830187611e4d565b611f1260208301866118bc565b8181036040830152611f25818486611e7a565b905095945050505050565b5f8160e01c9050919050565b5f60033d1115611f585760045f5f3e611f555f51611f30565b90505b90565b7f4e487b71000000000000000000000000000000000000000000000000000000005f52604160045260245ffd5b611f9182611745565b810181811067ffffffffffffffff82111715611fb057611faf611f5b565b5b80604052505050565b5f60443d1061204557611fca6117ad565b60043d036004823e80513d602482011167ffffffffffffffff82111715611ff2575050612045565b808201805167ffffffffffffffff8111156120105750505050612045565b80602083010160043d03850181111561202d575050505050612045565b61203c82602001850186611f88565b82955050505050505b90565b7f746f6b656e7352656365697665642063616c6c6261636b206661696c656400005f82015250565b5f61207c601e83611727565b915061208782612048565b602082019050919050565b5f6020820190508181035f8301526120a981612070565b9050919050565b7f7474636f696e3a207065726d69742065787069726564000000000000000000005f82015250565b5f6120e4601683611727565b91506120ef826120b0565b602082019050919050565b5f6020820190508181035f830152612111816120d8565b9050919050565b5f61212282611818565b91507fffffffffffffffffffffffffffffffffffffffffffffffffffffffffffffffff820361215457612153611d1d565b5b600182019050919050565b5f60c0820190506121725f830189611971565b61217f6020830188611e4d565b61218c6040830187611e4d565b61219960608301866118bc565b6121a660808301856118bc565b6121b360a08301846118bc565b979650505050505050565b5f81905092915050565b7f19010000000000000000000000000000000000000000000000000000000000005f82015250565b5f6121fc6002836121be565b9150612207826121c8565b600282019050919050565b5f819050919050565b61222c61222782611968565b612212565b82525050565b5f61223c826121f0565b9150612248828561221b565b602082019150612258828461221b565b6020820191508190509392505050565b5f60808201905061227b5f830187611971565b6122886020830186611940565b6122956040830185611971565b6122a26060830184611971565b95945050505050565b7f7474636f696e3a20696e76616c6964207369676e6174757265000000000000005f82015250565b5f6122df601983611727565b91506122ea826122ab565b602082019050919050565b5f6020820190508181035f83015261230c816122d3565b9050919050565b7f7474636f696e3a20756e617574686f72697a65640000000000000000000000005f82015250565b5f612347601483611727565b915061235282612313565b602082019050919050565b5f6020820190508181035f8301526123748161233b565b9050919050565b7f5472616e736665722066726f6d207a65726f20616464726573730000000000005f82015250565b5f6123af601a83611727565b91506123ba8261237b565b602082019050919050565b5f6020820190508181035f8301526123dc816123a3565b9050919050565b7f5472616e7366657220746f207a65726f206164647265737300000000000000005f82015250565b5f612417601883611727565b9150612422826123e3565b602082019050919050565b5f6020820190508181035f8301526124448161240b565b9050919050565b7f496e73756666696369656e742062616c616e63650000000000000000000000005f82015250565b5f61247f601483611727565b915061248a8261244b565b602082019050919050565b5f6020820190508181035f8301526124ac81612473565b9050919050565b5f6124bd82611818565b91506124c883611818565b92508282019050808211156124e0576124df611d1d565b5b92915050565b7f4e487b71000000000000000000000000000000000000000000000000000000005f52600160045260245ffd5b5f60a0820190506125265f830188611971565b6125336020830187611971565b6125406040830186611971565b61254d60608301856118bc565b61255a6080830184611e4d565b969550505050505056fea2646970667358221220c7ff6219f662569c13b3cd3e7da9f2adf52253bf14b0126e700e95dd537ed10564736f6c634300081e0033","linkReferences":{}},"methodIdentifiers":{"DOMAIN_SEPARATOR()":"3644e515","allowance(address,address)":"dd62ed3e","approve(address,uint256)":"095ea7b3","approveAndCall(address,uint256,bytes)":"cae9ca51","balanceOf(address)":"70a08231","burn(uint256)":"42966c68","burnFrom(address,uint256)":"79cc6790","decimals()":"313ce567","name()":"06fdde03","nonces(address)":"7ecebe00","permit(address,address,uint256,uint256,uint8,bytes32,bytes32)":"d505accf","symbol()":"95d89b41","totalSupply()":"18160ddd","transfer(address,uint256)":"a9059cbb","transferFrom(address,address,uint256)":"23b872dd","transferWithCallback(address,uint256,bytes)":"d3139195"},"id":14}